{
  "contractName": "MarketPlace",
  "abi": [
    {
      "inputs": [],
      "stateMutability": "nonpayable",
      "type": "constructor"
    },
    {
      "anonymous": false,
      "inputs": [
        {
          "indexed": false,
          "internalType": "string",
          "name": "placeOfer",
          "type": "string"
        }
      ],
      "name": "OferringPlaced",
      "type": "event"
    },
    {
      "anonymous": false,
      "inputs": [
        {
          "indexed": false,
          "internalType": "string",
          "name": "newSate",
          "type": "string"
        }
      ],
      "name": "OperatorChanged",
      "type": "event"
    },
    {
      "anonymous": false,
      "inputs": [
        {
          "indexed": false,
          "internalType": "string",
          "name": "withdrawB",
          "type": "string"
        }
      ],
      "name": "balanceWithdrawn",
      "type": "event"
    },
    {
      "anonymous": false,
      "inputs": [
        {
          "indexed": false,
          "internalType": "string",
          "name": "offerClosed",
          "type": "string"
        }
      ],
      "name": "offeringClosed",
      "type": "event"
    },
    {
      "inputs": [],
      "name": "owner",
      "outputs": [
        {
          "internalType": "address payable",
          "name": "",
          "type": "address"
        }
      ],
      "stateMutability": "view",
      "type": "function"
    },
    {
      "inputs": [],
      "name": "state",
      "outputs": [
        {
          "internalType": "enum MarketPlace.State",
          "name": "",
          "type": "uint8"
        }
      ],
      "stateMutability": "view",
      "type": "function"
    },
    {
      "inputs": [
        {
          "internalType": "enum MarketPlace.State",
          "name": "newSate",
          "type": "uint8"
        }
      ],
      "name": "changeOperator",
      "outputs": [],
      "stateMutability": "nonpayable",
      "type": "function"
    },
    {
      "inputs": [],
      "name": "placeOfferring",
      "outputs": [],
      "stateMutability": "payable",
      "type": "function"
    },
    {
      "inputs": [],
      "name": "closeOffering",
      "outputs": [],
      "stateMutability": "nonpayable",
      "type": "function"
    },
    {
      "inputs": [],
      "name": "highestBid",
      "outputs": [
        {
          "internalType": "uint256",
          "name": "",
          "type": "uint256"
        }
      ],
      "stateMutability": "view",
      "type": "function"
    },
    {
      "inputs": [],
      "name": "addressFromHB",
      "outputs": [
        {
          "internalType": "address",
          "name": "",
          "type": "address"
        }
      ],
      "stateMutability": "view",
      "type": "function"
    },
    {
      "inputs": [
        {
          "internalType": "address",
          "name": "_address",
          "type": "address"
        }
      ],
      "name": "viewBalance",
      "outputs": [
        {
          "internalType": "uint256",
          "name": "",
          "type": "uint256"
        }
      ],
      "stateMutability": "view",
      "type": "function"
    },
    {
      "inputs": [
        {
          "internalType": "address payable",
          "name": "_address",
          "type": "address"
        }
      ],
      "name": "withdrawUserBalance",
      "outputs": [],
      "stateMutability": "nonpayable",
      "type": "function"
    },
    {
      "inputs": [],
      "name": "viewOfferingNft",
      "outputs": [],
      "stateMutability": "view",
      "type": "function"
    },
    {
      "inputs": [],
      "name": "withdrawBalance",
      "outputs": [],
      "stateMutability": "payable",
      "type": "function"
    }
  ],
  "bytecode": "0x60806040526001600360006101000a81548160ff0219169083600181111561002a57610029610081565b5b021790555034801561003b57600080fd5b50336000806101000a81548173ffffffffffffffffffffffffffffffffffffffff021916908373ffffffffffffffffffffffffffffffffffffffff1602179055506100b0565b7f4e487b7100000000000000000000000000000000000000000000000000000000600052602160045260246000fd5b610ee5806100bf6000396000f3fe60806040526004361061009c5760003560e01c8063ab7294f011610064578063ab7294f014610132578063b5c3dadc14610149578063c19d93fb14610174578063c1a13d1a1461019f578063d57bde79146101dc578063e0a37705146102075761009c565b806307dde7e4146100a15780631a9efede146100ab57806340b4eb3b146100d45780635fd8c710146100fd5780638da5cb5b14610107575b600080fd5b6100a961021e565b005b3480156100b757600080fd5b506100d260048036038101906100cd919061090a565b6103f8565b005b3480156100e057600080fd5b506100fb60048036038101906100f69190610995565b6104e8565b005b6101056105fa565b005b34801561011357600080fd5b5061011c610765565b60405161012991906109d1565b60405180910390f35b34801561013e57600080fd5b50610147610789565b005b34801561015557600080fd5b5061015e61084e565b60405161016b9190610a0d565b60405180910390f35b34801561018057600080fd5b50610189610878565b6040516101969190610a9f565b60405180910390f35b3480156101ab57600080fd5b506101c660048036038101906101c19190610ae6565b61088b565b6040516101d39190610b2c565b60405180910390f35b3480156101e857600080fd5b506101f16108d4565b6040516101fe9190610b2c565b60405180910390f35b34801561021357600080fd5b5061021c6108de565b005b600034600460003373ffffffffffffffffffffffffffffffffffffffff1673ffffffffffffffffffffffffffffffffffffffff1681526020019081526020016000205461026b9190610b76565b90506000600181111561028157610280610a28565b5b600360009054906101000a900460ff1660018111156102a3576102a2610a28565b5b146102ad57600080fd5b600034116102f0576040517f08c379a00000000000000000000000000000000000000000000000000000000081526004016102e790610c07565b60405180910390fd5b6002548111610334576040517f08c379a000000000000000000000000000000000000000000000000000000000815260040161032b90610c73565b60405180910390fd5b80600460003373ffffffffffffffffffffffffffffffffffffffff1673ffffffffffffffffffffffffffffffffffffffff168152602001908152602001600020819055508060028190555033600160006101000a81548173ffffffffffffffffffffffffffffffffffffffff021916908373ffffffffffffffffffffffffffffffffffffffff1602179055507f3262243df8836187ef56e30db50f665d6e08548f1ac3a23156667a000bf28bd16040516103ed90610cdf565b60405180910390a150565b3373ffffffffffffffffffffffffffffffffffffffff1660008054906101000a900473ffffffffffffffffffffffffffffffffffffffff1673ffffffffffffffffffffffffffffffffffffffff1614610486576040517f08c379a000000000000000000000000000000000000000000000000000000000815260040161047d90610d4b565b60405180910390fd5b80600360006101000a81548160ff021916908360018111156104ab576104aa610a28565b5b02179055507fde7061663bc921944963673c567b9e15b2a95c4058d8406a75c50f48de11226f6040516104dd90610db7565b60405180910390a150565b600060018111156104fc576104fb610a28565b5b600360009054906101000a900460ff16600181111561051e5761051d610a28565b5b1461052857600080fd5b6000600460008373ffffffffffffffffffffffffffffffffffffffff1673ffffffffffffffffffffffffffffffffffffffff1681526020019081526020016000205411156105f7578073ffffffffffffffffffffffffffffffffffffffff166108fc600460008473ffffffffffffffffffffffffffffffffffffffff1673ffffffffffffffffffffffffffffffffffffffff168152602001908152602001600020549081150290604051600060405180830381858888f193505050501580156105f5573d6000803e3d6000fd5b505b50565b3373ffffffffffffffffffffffffffffffffffffffff1660008054906101000a900473ffffffffffffffffffffffffffffffffffffffff1673ffffffffffffffffffffffffffffffffffffffff1614610688576040517f08c379a000000000000000000000000000000000000000000000000000000000815260040161067f90610d4b565b60405180910390fd5b60018081111561069b5761069a610a28565b5b600360009054906101000a900460ff1660018111156106bd576106bc610a28565b5b146106c757600080fd5b60008054906101000a900473ffffffffffffffffffffffffffffffffffffffff1673ffffffffffffffffffffffffffffffffffffffff166108fc479081150290604051600060405180830381858888f1935050505015801561072d573d6000803e3d6000fd5b507f7761b5aec641f83d5cbaaf542891f48e7106f4b538634e5da2c47a449824fd7660405161075b90610e23565b60405180910390a1565b60008054906101000a900473ffffffffffffffffffffffffffffffffffffffff1681565b3373ffffffffffffffffffffffffffffffffffffffff1660008054906101000a900473ffffffffffffffffffffffffffffffffffffffff1673ffffffffffffffffffffffffffffffffffffffff1614610817576040517f08c379a000000000000000000000000000000000000000000000000000000000815260040161080e90610d4b565b60405180910390fd5b7f78d2882e343ba86bc32cf0001132772bc3ce8a214bc6b2bfbe05a2880ee45ad460405161084490610e8f565b60405180910390a1565b6000600160009054906101000a900473ffffffffffffffffffffffffffffffffffffffff16905090565b600360009054906101000a900460ff1681565b6000600460008373ffffffffffffffffffffffffffffffffffffffff1673ffffffffffffffffffffffffffffffffffffffff168152602001908152602001600020549050919050565b6000600254905090565b565b600080fd5b600281106108f257600080fd5b50565b600081359050610904816108e5565b92915050565b6000602082840312156109205761091f6108e0565b5b600061092e848285016108f5565b91505092915050565b600073ffffffffffffffffffffffffffffffffffffffff82169050919050565b600061096282610937565b9050919050565b61097281610957565b811461097d57600080fd5b50565b60008135905061098f81610969565b92915050565b6000602082840312156109ab576109aa6108e0565b5b60006109b984828501610980565b91505092915050565b6109cb81610957565b82525050565b60006020820190506109e660008301846109c2565b92915050565b60006109f782610937565b9050919050565b610a07816109ec565b82525050565b6000602082019050610a2260008301846109fe565b92915050565b7f4e487b7100000000000000000000000000000000000000000000000000000000600052602160045260246000fd5b60028110610a6857610a67610a28565b5b50565b6000819050610a7982610a57565b919050565b6000610a8982610a6b565b9050919050565b610a9981610a7e565b82525050565b6000602082019050610ab46000830184610a90565b92915050565b610ac3816109ec565b8114610ace57600080fd5b50565b600081359050610ae081610aba565b92915050565b600060208284031215610afc57610afb6108e0565b5b6000610b0a84828501610ad1565b91505092915050565b6000819050919050565b610b2681610b13565b82525050565b6000602082019050610b416000830184610b1d565b92915050565b7f4e487b7100000000000000000000000000000000000000000000000000000000600052601160045260246000fd5b6000610b8182610b13565b9150610b8c83610b13565b9250828201905080821115610ba457610ba3610b47565b5b92915050565b600082825260208201905092915050565b7f62696420616d6f756e742063616e6e6f74206265203000000000000000000000600082015250565b6000610bf1601683610baa565b9150610bfc82610bbb565b602082019050919050565b60006020820190508181036000830152610c2081610be4565b9050919050565b7f486967686573742062696420616c726564792070726573656e74000000000000600082015250565b6000610c5d601a83610baa565b9150610c6882610c27565b602082019050919050565b60006020820190508181036000830152610c8c81610c50565b9050919050565b7f6f666665722073656e7400000000000000000000000000000000000000000000600082015250565b6000610cc9600a83610baa565b9150610cd482610c93565b602082019050919050565b60006020820190508181036000830152610cf881610cbc565b9050919050565b7f796f75206e65656420746f206265207468652070726f6a656374206f776e6572600082015250565b6000610d35602083610baa565b9150610d4082610cff565b602082019050919050565b60006020820190508181036000830152610d6481610d28565b9050919050565b7f61756374696f6e20636c6f736564000000000000000000000000000000000000600082015250565b6000610da1600e83610baa565b9150610dac82610d6b565b602082019050919050565b60006020820190508181036000830152610dd081610d94565b9050919050565b7f62616c616e6365206f662074686520644170702077697468647261776e000000600082015250565b6000610e0d601d83610baa565b9150610e1882610dd7565b602082019050919050565b60006020820190508181036000830152610e3c81610e00565b9050919050565b7f4f66666572696e6720436c6f7365640000000000000000000000000000000000600082015250565b6000610e79600f83610baa565b9150610e8482610e43565b602082019050919050565b60006020820190508181036000830152610ea881610e6c565b905091905056fea26469706673582212208595b8ad2b034c8d7977b7411a4e18cd86423db86e6ef3539114981ea40627d964736f6c63430008110033",
  "immutableReferences": {},
  "source": "// SPDX-License-Identifier: GPL-3.0\n\npragma solidity >=0.7.0 <0.9.0;\n\ncontract MarketPlace{\n// owner\n address payable public owner;\n //high offer \n address highestBidder;\n uint highestOffer;\n //emum\n enum State {Active, Inactive}  \n State public state = State.Inactive;\n mapping(address => uint) biddersData;\n\n\n//events\n event OferringPlaced(\n         string placeOfer  \n );\nevent offeringClosed(\n    string offerClosed\n);\nevent balanceWithdrawn(\n    string withdrawB\n);\n event OperatorChanged(\n  string newSate\n);\n\nconstructor(){\n    owner = payable(msg.sender);\n}\n// function modifier\n modifier Onlyowner() {\n       require(owner == msg.sender, \"you need to be the project owner\");\n       _;\n   }\n\n   //changeOperator()\n function changeOperator(State newSate) public Onlyowner{\n       state = newSate; \n       emit OperatorChanged(\"auction closed\");\n   }\n\n   //placeOffering()\n function placeOfferring() public payable{\n    //verify value is not zero \n    uint calculateAmount = biddersData[msg.sender] + msg.value;\n    require (state == State.Active);\n    require(msg.value >0, \"bid amount cannot be 0\");\n    require(calculateAmount >highestOffer, \"Highest bid alredy present\");\n    biddersData[msg.sender] = calculateAmount;\n    highestOffer = calculateAmount;\n    highestBidder=msg.sender;\n    emit OferringPlaced(\"offer sent\"); // emit event\n}\n\n\n//closeOffering function\nfunction closeOffering() public Onlyowner{\n\n      emit offeringClosed(\"Offering Closed\"); // emit event\n}\n// highest offer\nfunction highestBid()public view returns (uint){\n    return highestOffer;\n}\n// highest offer address\nfunction addressFromHB()public view returns(address){\n    return highestBidder;\n}\n//viewBalance\nfunction viewBalance(address _address) public view returns(uint){\nreturn biddersData[_address];\n}\nfunction withdrawUserBalance(address payable _address) public {\n    require(state == State.Active);\n    \n    if(biddersData[_address]>0){\n        _address.transfer(biddersData[_address]);\n    }\n}\n\n\nfunction viewOfferingNft() public view {\n     \n}\n//withdrawBalance from the dapp\nfunction withdrawBalance()public payable Onlyowner{\n    require(state == State.Inactive);\n        owner.transfer(address(this).balance);\n        emit balanceWithdrawn(\"balance of the dApp withdrawn\"); // emit event \n    }\n}",
  "sourcePath": "C:\\Users\\tomi2\\Desktop\\contratos-truffle\\nolan-nfts\\truffle\\contracts\\MarketPlace.sol",
  "compiler": {
    "name": "solc",
    "version": "0.8.17+commit.8df45f5f.Emscripten.clang"
  },
  "schemaVersion": "3.4.10",
  "updatedAt": "2022-10-11T20:14:56.241Z",
  "devdoc": {
    "kind": "dev",
    "methods": {},
    "version": 1
  },
  "userdoc": {
    "kind": "user",
    "methods": {},
    "version": 1
  }
}